{
  "contractName": "Classroom",
  "abi": [
    {
      "inputs": [
        {
          "internalType": "uint256",
          "name": "",
          "type": "uint256"
        }
      ],
      "name": "classes",
      "outputs": [
        {
          "internalType": "string",
          "name": "className",
          "type": "string"
        },
        {
          "internalType": "string",
          "name": "joinCode",
          "type": "string"
        },
        {
          "internalType": "address",
          "name": "teacher",
          "type": "address"
        }
      ],
      "stateMutability": "view",
      "type": "function",
      "constant": true
    },
    {
      "inputs": [
        {
          "internalType": "bytes32",
          "name": "_bytes32",
          "type": "bytes32"
        }
      ],
      "name": "bytes32ToString",
      "outputs": [
        {
          "internalType": "string",
          "name": "",
          "type": "string"
        }
      ],
      "stateMutability": "pure",
      "type": "function",
      "constant": true
    },
    {
      "inputs": [
        {
          "internalType": "string",
          "name": "_className",
          "type": "string"
        }
      ],
      "name": "createClass",
      "outputs": [],
      "stateMutability": "nonpayable",
      "type": "function"
    },
    {
      "inputs": [
        {
          "internalType": "string",
          "name": "str",
          "type": "string"
        },
        {
          "internalType": "uint256",
          "name": "startIndex",
          "type": "uint256"
        },
        {
          "internalType": "uint256",
          "name": "endIndex",
          "type": "uint256"
        }
      ],
      "name": "substring",
      "outputs": [
        {
          "internalType": "string",
          "name": "",
          "type": "string"
        }
      ],
      "stateMutability": "pure",
      "type": "function",
      "constant": true
    }
  ],
  "bytecode": "0x608060405234801561001057600080fd5b50610cb3806100206000396000f3fe608060405234801561001057600080fd5b506004361061004c5760003560e01c80631dcd9b5514610051578063817dbe9f146100815780638a7dc32b146100b35780639201de55146100cf575b600080fd5b61006b60048036038101906100669190610803565b6100ff565b6040516100789190610935565b60405180910390f35b61009b6004803603810190610096919061086a565b61026d565b6040516100aa93929190610957565b60405180910390f35b6100cd60048036038101906100c891906107c2565b6103d7565b005b6100e960048036038101906100e49190610799565b6104c6565b6040516100f69190610935565b60405180910390f35b60606000849050600084846101149190610a0e565b67ffffffffffffffff811115610153577f4e487b7100000000000000000000000000000000000000000000000000000000600052604160045260246000fd5b6040519080825280601f01601f1916602001820160405280156101855781602001600182028036833780820191505090505b50905060008590505b84811015610260578281815181106101cf577f4e487b7100000000000000000000000000000000000000000000000000000000600052603260045260246000fd5b602001015160f81c60f81b8287836101e79190610a0e565b8151811061021e577f4e487b7100000000000000000000000000000000000000000000000000000000600052603260045260246000fd5b60200101907effffffffffffffffffffffffffffffffffffffffffffffffffffffffffffff1916908160001a905350808061025890610b2d565b91505061018e565b5080925050509392505050565b6000818154811061027d57600080fd5b90600052602060002090600302016000915090508060000180546102a090610aca565b80601f01602080910402602001604051908101604052809291908181526020018280546102cc90610aca565b80156103195780601f106102ee57610100808354040283529160200191610319565b820191906000526020600020905b8154815290600101906020018083116102fc57829003601f168201915b50505050509080600101805461032e90610aca565b80601f016020809104026020016040519081016040528092919081815260200182805461035a90610aca565b80156103a75780601f1061037c576101008083540402835291602001916103a7565b820191906000526020600020905b81548152906001019060200180831161038a57829003601f168201915b5050505050908060020160009054906101000a900473ffffffffffffffffffffffffffffffffffffffff16905083565b60006103e161060e565b9050600060405180606001604052808481526020018381526020013373ffffffffffffffffffffffffffffffffffffffff168152509080600181540180825580915050600190039060005260206000209060030201600090919091909150600082015181600001908051906020019061045b929190610664565b506020820151816001019080519060200190610478929190610664565b5060408201518160020160006101000a81548173ffffffffffffffffffffffffffffffffffffffff021916908373ffffffffffffffffffffffffffffffffffffffff16021790555050505050565b60606000602067ffffffffffffffff81111561050b577f4e487b7100000000000000000000000000000000000000000000000000000000600052604160045260246000fd5b6040519080825280601f01601f19166020018201604052801561053d5781602001600182028036833780820191505090505b50905060005b602081101561060457838160208110610585577f4e487b7100000000000000000000000000000000000000000000000000000000600052603260045260246000fd5b1a60f81b8282815181106105c2577f4e487b7100000000000000000000000000000000000000000000000000000000600052603260045260246000fd5b60200101907effffffffffffffffffffffffffffffffffffffffffffffffffffffffffffff1916908160001a90535080806105fc90610b2d565b915050610543565b5080915050919050565b606060004233604051602001610625929190610909565b6040516020818303038152906040528051906020012060001c905060008160001b905061065d610654826104c6565b600060066100ff565b9250505090565b82805461067090610aca565b90600052602060002090601f01602090048101928261069257600085556106d9565b82601f106106ab57805160ff19168380011785556106d9565b828001600101855582156106d9579182015b828111156106d85782518255916020019190600101906106bd565b5b5090506106e691906106ea565b5090565b5b808211156107035760008160009055506001016106eb565b5090565b600061071a610715846109c1565b61099c565b90508281526020810184848401111561073257600080fd5b61073d848285610a88565b509392505050565b60008135905061075481610c4f565b92915050565b600082601f83011261076b57600080fd5b813561077b848260208601610707565b91505092915050565b60008135905061079381610c66565b92915050565b6000602082840312156107ab57600080fd5b60006107b984828501610745565b91505092915050565b6000602082840312156107d457600080fd5b600082013567ffffffffffffffff8111156107ee57600080fd5b6107fa8482850161075a565b91505092915050565b60008060006060848603121561081857600080fd5b600084013567ffffffffffffffff81111561083257600080fd5b61083e8682870161075a565b935050602061084f86828701610784565b925050604061086086828701610784565b9150509250925092565b60006020828403121561087c57600080fd5b600061088a84828501610784565b91505092915050565b61089c81610a42565b82525050565b6108b36108ae82610a42565b610b76565b82525050565b60006108c4826109f2565b6108ce81856109fd565b93506108de818560208601610a97565b6108e781610c31565b840191505092915050565b6109036108fe82610a7e565b610b9a565b82525050565b600061091582856108f2565b60208201915061092582846108a2565b6014820191508190509392505050565b6000602082019050818103600083015261094f81846108b9565b905092915050565b6000606082019050818103600083015261097181866108b9565b9050818103602083015261098581856108b9565b90506109946040830184610893565b949350505050565b60006109a66109b7565b90506109b28282610afc565b919050565b6000604051905090565b600067ffffffffffffffff8211156109dc576109db610c02565b5b6109e582610c31565b9050602081019050919050565b600081519050919050565b600082825260208201905092915050565b6000610a1982610a7e565b9150610a2483610a7e565b925082821015610a3757610a36610ba4565b5b828203905092915050565b6000610a4d82610a5e565b9050919050565b6000819050919050565b600073ffffffffffffffffffffffffffffffffffffffff82169050919050565b6000819050919050565b82818337600083830152505050565b60005b83811015610ab5578082015181840152602081019050610a9a565b83811115610ac4576000848401525b50505050565b60006002820490506001821680610ae257607f821691505b60208210811415610af657610af5610bd3565b5b50919050565b610b0582610c31565b810181811067ffffffffffffffff82111715610b2457610b23610c02565b5b80604052505050565b6000610b3882610a7e565b91507fffffffffffffffffffffffffffffffffffffffffffffffffffffffffffffffff821415610b6b57610b6a610ba4565b5b600182019050919050565b6000610b8182610b88565b9050919050565b6000610b9382610c42565b9050919050565b6000819050919050565b7f4e487b7100000000000000000000000000000000000000000000000000000000600052601160045260246000fd5b7f4e487b7100000000000000000000000000000000000000000000000000000000600052602260045260246000fd5b7f4e487b7100000000000000000000000000000000000000000000000000000000600052604160045260246000fd5b6000601f19601f8301169050919050565b60008160601b9050919050565b610c5881610a54565b8114610c6357600080fd5b50565b610c6f81610a7e565b8114610c7a57600080fd5b5056fea2646970667358221220fe17fd6a30d4c155f72dc449738a4d703d4ee46da11df7c7f1cb055596f7aa5c64736f6c63430008040033",
  "immutableReferences": {},
  "source": "// SPDX-License-Identifier: MIT\r\npragma solidity ^0.8.4;\r\n\r\ncontract MyContractBlockchain {\r\n    struct User {\r\n        string username;\r\n        string password;\r\n        string role; // \"student\" or \"teacher\"\r\n    }\r\n    \r\n    mapping(string => User) public users;\r\n      User[] public userList; // <--  array \r\n\r\n    address public admin;\r\n    string private adminUsername;\r\n    string private adminPassword;\r\n    \r\n    constructor() {\r\n        admin = msg.sender;\r\n        adminUsername = \"Test00\";\r\n        adminPassword = \"Test00\";\r\n    }\r\n    \r\n    modifier onlyAdmin() {\r\n        require(msg.sender == admin, \"Only admin can perform this action\");\r\n        _;\r\n    }\r\n    \r\n    function authenticateAdmin(string memory _username, string memory _password) public view returns(bool) {\r\n        return keccak256(abi.encodePacked(_username)) == keccak256(abi.encodePacked(adminUsername)) && keccak256(abi.encodePacked(_password)) == keccak256(abi.encodePacked(adminPassword));\r\n    }\r\n    \r\n    function createUser(string memory _username, string memory _password, string memory _role) public onlyAdmin {\r\n        require(bytes(users[_username].username).length == 0, \"Username already exists\");\r\n        require(keccak256(abi.encodePacked(_role)) == keccak256(abi.encodePacked(\"student\")) || keccak256(abi.encodePacked(_role)) == keccak256(abi.encodePacked(\"teacher\")), \"Invalid role\");\r\n        users[_username] = User(_username, _password, _role);\r\n        userList.push(User(_username, _password, _role)); // <--  user  array userList  \r\n    }\r\n  function getAllUsers() public view returns(User[] memory) {\r\n    return userList;\r\n}\r\n\r\n\r\n\r\n\r\n\r\n    function authenticate(string memory _username, string memory _password) public view returns(bool) {\r\n    return keccak256(abi.encodePacked(_password)) == keccak256(abi.encodePacked(users[_username].password));\r\n}\r\n    function checkUserRole(string memory _username) public view returns(string memory) {\r\n    return users[_username].role;\r\n}\r\n\r\n}\r\n\r\n    contract Classroom {\r\n\r\n    struct Class {\r\n        string className;\r\n        string joinCode;\r\n        address teacher;\r\n    }\r\n    \r\n    Class[] public classes;\r\n\r\n    function createJoinCode() private view returns (string memory) {\r\n    uint256 random = uint256(keccak256(abi.encodePacked(block.timestamp, msg.sender)));\r\n    bytes32 hexRandom = bytes32(random);\r\n    return substring(bytes32ToString(hexRandom), 0, 6);\r\n}\r\n\r\n\r\n    function bytes32ToString(bytes32 _bytes32) public pure returns (string memory) {\r\n        bytes memory bytesArray = new bytes(32);\r\n        for (uint256 i; i < 32; i++) {\r\n            bytesArray[i] = _bytes32[i];\r\n        }\r\n        return string(bytesArray);\r\n    }\r\n\r\n    function createClass(string memory _className) public {\r\n        string memory joinCode = createJoinCode();\r\n        classes.push(Class({\r\n            className: _className,\r\n            joinCode: joinCode,\r\n            teacher: msg.sender\r\n        }));\r\n    }\r\n\r\n    function substring(string memory str, uint startIndex, uint endIndex) public pure returns (string memory) {\r\n    bytes memory strBytes = bytes(str);\r\n    bytes memory result = new bytes(endIndex-startIndex);\r\n    for(uint i = startIndex; i < endIndex; i++) {\r\n        result[i-startIndex] = strBytes[i];\r\n    }\r\n    return string(result);\r\n}\r\n\r\n}\r\n",
  "sourcePath": "C:\\Users\\Duff\\Desktop\\blockchainApp\\projecrblockchainApp\\contracts\\MyContract.sol",
  "compiler": {
    "name": "solc",
    "version": "0.8.4+commit.c7e474f2.Emscripten.clang"
  },
  "schemaVersion": "3.4.16",
  "updatedAt": "2023-09-18T15:39:10.668Z",
  "networkType": "ethereum",
  "devdoc": {
    "kind": "dev",
    "methods": {},
    "version": 1
  },
  "userdoc": {
    "kind": "user",
    "methods": {},
    "version": 1
  }
}